{
  "_format": "hh-sol-artifact-1",
  "contractName": "NewsVerification",
  "sourceName": "contracts/NewsVerification.sol",
  "abi": [
    {
      "anonymous": false,
      "inputs": [
        {
          "indexed": true,
          "internalType": "string",
          "name": "contentHash",
          "type": "string"
        },
        {
          "indexed": false,
          "internalType": "string",
          "name": "result",
          "type": "string"
        },
        {
          "indexed": false,
          "internalType": "uint256",
          "name": "confidence",
          "type": "uint256"
        },
        {
          "indexed": false,
          "internalType": "uint256",
          "name": "timestamp",
          "type": "uint256"
        }
      ],
      "name": "NewsRecordAdded",
      "type": "event"
    },
    {
      "inputs": [
        {
          "internalType": "string",
          "name": "_hash",
          "type": "string"
        },
        {
          "internalType": "string",
          "name": "_result",
          "type": "string"
        },
        {
          "internalType": "uint256",
          "name": "_confidence",
          "type": "uint256"
        }
      ],
      "name": "addNewsRecord",
      "outputs": [],
      "stateMutability": "nonpayable",
      "type": "function"
    },
    {
      "inputs": [
        {
          "internalType": "string",
          "name": "_hash",
          "type": "string"
        }
      ],
      "name": "getNewsRecord",
      "outputs": [
        {
          "components": [
            {
              "internalType": "string",
              "name": "contentHash",
              "type": "string"
            },
            {
              "internalType": "string",
              "name": "result",
              "type": "string"
            },
            {
              "internalType": "uint256",
              "name": "confidence",
              "type": "uint256"
            },
            {
              "internalType": "uint256",
              "name": "timestamp",
              "type": "uint256"
            }
          ],
          "internalType": "struct NewsVerification.NewsRecord",
          "name": "",
          "type": "tuple"
        }
      ],
      "stateMutability": "view",
      "type": "function"
    },
    {
      "inputs": [
        {
          "internalType": "string",
          "name": "",
          "type": "string"
        }
      ],
      "name": "records",
      "outputs": [
        {
          "internalType": "string",
          "name": "contentHash",
          "type": "string"
        },
        {
          "internalType": "string",
          "name": "result",
          "type": "string"
        },
        {
          "internalType": "uint256",
          "name": "confidence",
          "type": "uint256"
        },
        {
          "internalType": "uint256",
          "name": "timestamp",
          "type": "uint256"
        }
      ],
      "stateMutability": "view",
      "type": "function"
    }
  ],
  "bytecode": "0x608060405234801561001057600080fd5b506108d3806100206000396000f3fe608060405234801561001057600080fd5b50600436106100415760003560e01c806302b84d9f14610046578063541e771d1461005b578063a98212e714610087575b600080fd5b610059610054366004610584565b6100a7565b005b61006e6100693660046105f1565b61020b565b60405161007e949392919061067e565b60405180910390f35b61009a6100953660046105f1565b61034e565b60405161007e91906106b7565b60008351116100f05760405162461bcd60e51b815260206004820152601060248201526f12185cda081a5cc81c995c5d5a5c995960821b60448201526064015b60405180910390fd5b60008251116101365760405162461bcd60e51b815260206004820152601260248201527114995cdd5b1d081a5cc81c995c5d5a5c995960721b60448201526064016100e7565b600060405180608001604052808581526020018481526020018381526020014281525090508060008560405161016c9190610711565b9081526040519081900360200190208151819061018990826107b8565b506020820151600182019061019e90826107b8565b506040828101516002830155606090920151600390910155516101c2908590610711565b60405180910390207fcb97d4a34a55f3feeeafca24e7bfb42a07a38ae4baa3825d088c8bc8120dce2c8484426040516101fd93929190610878565b60405180910390a250505050565b80516020818301810180516000825292820191909301209152805481906102319061072d565b80601f016020809104026020016040519081016040528092919081815260200182805461025d9061072d565b80156102aa5780601f1061027f576101008083540402835291602001916102aa565b820191906000526020600020905b81548152906001019060200180831161028d57829003601f168201915b5050505050908060010180546102bf9061072d565b80601f01602080910402602001604051908101604052809291908181526020018280546102eb9061072d565b80156103385780601f1061030d57610100808354040283529160200191610338565b820191906000526020600020905b81548152906001019060200180831161031b57829003601f168201915b5050505050908060020154908060030154905084565b6103796040518060800160405280606081526020016060815260200160008152602001600081525090565b6000826040516103899190610711565b90815260200160405180910390206040518060800160405290816000820180546103b29061072d565b80601f01602080910402602001604051908101604052809291908181526020018280546103de9061072d565b801561042b5780601f106104005761010080835404028352916020019161042b565b820191906000526020600020905b81548152906001019060200180831161040e57829003601f168201915b505050505081526020016001820180546104449061072d565b80601f01602080910402602001604051908101604052809291908181526020018280546104709061072d565b80156104bd5780601f10610492576101008083540402835291602001916104bd565b820191906000526020600020905b8154815290600101906020018083116104a057829003601f168201915b50505050508152602001600282015481526020016003820154815250509050919050565b634e487b7160e01b600052604160045260246000fd5b600082601f83011261050857600080fd5b813567ffffffffffffffff80821115610523576105236104e1565b604051601f8301601f19908116603f0116810190828211818310171561054b5761054b6104e1565b8160405283815286602085880101111561056457600080fd5b836020870160208301376000602085830101528094505050505092915050565b60008060006060848603121561059957600080fd5b833567ffffffffffffffff808211156105b157600080fd5b6105bd878388016104f7565b945060208601359150808211156105d357600080fd5b506105e0868287016104f7565b925050604084013590509250925092565b60006020828403121561060357600080fd5b813567ffffffffffffffff81111561061a57600080fd5b610626848285016104f7565b949350505050565b60005b83811015610649578181015183820152602001610631565b50506000910152565b6000815180845261066a81602086016020860161062e565b601f01601f19169290920160200192915050565b6080815260006106916080830187610652565b82810360208401526106a38187610652565b604084019590955250506060015292915050565b6020815260008251608060208401526106d360a0840182610652565b90506020840151601f198483030160408501526106f08282610652565b91505060408401516060840152606084015160808401528091505092915050565b6000825161072381846020870161062e565b9190910192915050565b600181811c9082168061074157607f821691505b60208210810361076157634e487b7160e01b600052602260045260246000fd5b50919050565b601f8211156107b3576000816000526020600020601f850160051c810160208610156107905750805b601f850160051c820191505b818110156107af5782815560010161079c565b5050505b505050565b815167ffffffffffffffff8111156107d2576107d26104e1565b6107e6816107e0845461072d565b84610767565b602080601f83116001811461081b57600084156108035750858301515b600019600386901b1c1916600185901b1785556107af565b600085815260208120601f198616915b8281101561084a5788860151825594840194600190910190840161082b565b50858210156108685787850151600019600388901b60f8161c191681555b5050505050600190811b01905550565b60608152600061088b6060830186610652565b6020830194909452506040015291905056fea2646970667358221220509ccad74c6394cfa4cb28e4e069c7d5d086fa943c7670cf35b01dd735846f7364736f6c63430008180033",
  "linkReferences": {},
  "deployedLinkReferences": {}
}